:100000000C9434000C9451000C9451000C94510049
:100010000C9451000C9451000C9451000C9451001C
:100020000C9451000C9451000C9451000C9451000C
:100030000C9451000C9451000C9451000C945100FC
:100040000C9451000C9451000C9451000C945100EC
:100050000C9451000C9453000C9451000C945100DA
:100060000C9451000C94510011241FBECFEFD8E026
:10007000DEBFCDBF11E0A0E0B1E0E8EBFAE002C0E6
:1000800005900D92A631B107D9F711E0A6E1B1E0D4
:1000900001C01D92A032B107E1F70E94FD010C944E
:1000A0005A050C9400001F920F920FB60F92112464
:1000B0008F939F9381E08093160180917C008F70D5
:1000C0008330C1F198F4823009F045C08091790005
:1000D00090E090931F0180931E0180917C00807FAF
:1000E00080937C0080917C00856F33C0843091F0D8
:1000F000853089F58091790090E090931901809383
:10010000180180917C00807F80937C0080917C002E
:10011000846F1FC08091790090E090931B018093C1
:100120001A0180917C00807F80937C0080917C000C
:10013000836F0FC08091790090E090931D018093B0
:100140001C0180917C00807F80937C0080917C00EA
:10015000826F80937C0080917A00806480937A0023
:100160009F918F910F900FBE0F901F901895299817
:1001700087EC90E00197F1F700C00000299A87EC26
:1001800090E00197F1F700C00000299887EC90E01B
:100190000197F1F700C000000895FC01808144231D
:1001A00011F0682B02C060956823608308956F92F8
:1001B0007F928F929F92BF92CF92DF92EF92FF92A7
:1001C0000F931F93CF93DF93982F9F70B92E829533
:1001D0008F7098E0C92E91E0D92E20E0E22E21E028
:1001E000F22E4701360100E010E0C82FD0E0F30105
:1001F00061913F01AE01002E02C0559547950A94CA
:10020000E2F74170F401819191914F010E94CD007C
:100210000F5F1F4F0430110551F70E94B700C0E077
:10022000D0E00B2D10E0F60161916F01A8010C2EBA
:1002300002C0559547950A94E2F74170F701819104
:1002400091917F010E94CD002196C430D10559F7CC
:10025000DF91CF911F910F91FF90EF90DF90CF90A2
:10026000BF909F908F907F906F900C94B700CF922B
:10027000DF92EF92FF920F931F93CF93DF938295BC
:100280008F7098E0C92E91E0D92E20E0E22E21E077
:10029000F22EC0E0D0E0082F10E0F60161916F016E
:1002A000A8010C2E02C0559547950A94E2F74170BB
:1002B000F701819191917F010E94CD002196C43078
:1002C000D10559F7DF91CF911F910F91FF90EF90DA
:1002D000DF90CF900C94B700CF92DF92EF92FF9215
:1002E0000F931F93CF93DF938C01FC0101900020AB
:1002F000E9F73197EF01C81BD90B7E012A986130CD
:10030000710511F480E801C080EC0E94D7002A9AA0
:100310006801C601801B910B8C179D0734F4F60110
:1003200081916F010E94D700F4CF80E1E816F104BB
:100330003CF480E20E94D700FFEFEF1AFF0AF5CFEE
:1003400085B115B8DF91CF911F910F91FF90EF907C
:10035000DF90CF900895209A579A569A559A219AED
:10036000229A29982A9828985F985E985D982FEF8E
:1003700080E792E0215080409040E1F700C000000B
:1003800080E30E94370187E293E20197F1F700C012
:10039000000080E30E94370187E293E20197F1F7C2
:1003A00000C0000080E30E9437018BE291E00197DA
:1003B000F1F700C0000080E20E9437018BE291E07B
:1003C0000197F1F700C0000088E20E94D70090EA90
:1003D0009A95F1F78CE00E94D70081E00E94D70047
:1003E00086E00E94D70082E00E94D7008FE99FE05C
:1003F0000197F1F700C000000895CF93DF93CDB7C8
:10040000DEB7A0970FB6F894DEBF0FBECDBF259A1A
:100410000E94AB0180917A00866080937A0080917F
:100420007C00806480937C0080917C00806280935B
:100430007C0080917C00856080937C0080EF8093BD
:100440007B0080917A00806880937A0080917A00A6
:10045000806280937A0080917A00886080937A002D
:1004600080917A00806480937A0078940CE011E0A7
:100470006E0121E1C20ED11CCE0101967C0180915A
:1004800016018130E1F78090180190901901809158
:100490001A0190911B01A0901C01B0901D012091A8
:1004A0001E0130911F013F932F939F938F931F93B2
:1004B0000F93DF92CF920E9482029F928F92BF92FF
:1004C000AF921F930F93FF92EF920E94820261E01E
:1004D00070E0C6010E946C0162E070E0C7010E94FA
:1004E0006C01109216019FEF20E782E091502040AE
:1004F0008040E1F700C000000FB6F894DEBF0FBEE9
:10050000CDBFBDCFAEE0B0E0E8E8F2E00C9431053D
:100510000D891E8986E08C831A8309838FEF9FE7FC
:100520009E838D83AE01475E5F4F6F89788DCE01CC
:1005300001960E94A5022F813885F801E20FF31F72
:1005400010822E96E4E00C944D05ACE0B0E0EBEAAE
:10055000F2E00C9423057C016B018A01FC011782F7
:100560001682838181FFBDC1CE0101964C01F70146
:100570009381F60193FD859193FF81916F0188230B
:1005800009F4ABC1853239F493FD859193FF8191D4
:100590006F01853229F4B70190E00E948D04E7CF06
:1005A000512C312C20E02032A0F48B3269F030F451
:1005B000803259F0833269F420612CC08D3239F0D9
:1005C000803339F4216026C02260246023C0286073
:1005D00021C027FD27C030ED380F3A3078F426FFD0
:1005E00006C0FAE05F9E300D1124532E13C08AE03E
:1005F000389E300D1124332E20620CC08E3221F42F
:1006000026FD6BC1206406C08C3611F4206802C040
:10061000883641F4F60193FD859193FF81916F0136
:100620008111C1CF982F9F7D9554933028F40C5F92
:100630001F4FFFE3F9830DC0833631F0833771F02C
:10064000833509F05BC022C0F801808189830E5F89
:100650001F4F44244394512C540115C03801F2E03B
:100660006F0E711CF801A080B18026FF03C0652DBC
:1006700070E002C06FEF7FEFC5012C870E948204FB
:100680002C0183012C852F77222E17C03801F2E030
:100690006F0E711CF801A080B18026FF03C0652D8C
:1006A00070E002C06FEF7FEFC5012C870E947704D6
:1006B0002C012C852068222E830123FC1BC0832D56
:1006C00090E048165906B0F4B70180E290E00E942D
:1006D0008D043A94F4CFF50127FC859127FE819192
:1006E0005F01B70190E00E948D0431103A94F1E06F
:1006F0004F1A51084114510471F7E5C0843611F0C6
:10070000893639F5F80127FF07C060817181828140
:1007100093810C5F1F4F08C060817181882777FD2E
:100720008095982F0E5F1F4F2F76722E97FF09C06E
:1007300090958095709561957F4F8F4F9F4F206862
:10074000722E2AE030E0A4010E94C504A82EA81849
:1007500044C0853729F42F7EB22E2AE030E025C030
:10076000F22FF97FBF2E8F36C1F018F4883579F05B
:10077000B4C0803719F0883721F0AFC02F2F206127
:10078000B22EB4FE0DC08B2D8460B82E09C024FF9C
:100790000AC09F2F9660B92E06C028E030E005C041
:1007A00020E130E002C020E132E0F801B7FE07C0EE
:1007B00060817181828193810C5F1F4F06C06081CF
:1007C000718180E090E00E5F1F4FA4010E94C5047C
:1007D000A82EA818FB2DFF777F2E76FE0BC0372D95
:1007E0003E7FA51450F474FE0AC072FC08C0372D79
:1007F0003E7E05C0BA2C372D03C0BA2C01C0B52CE3
:1008000034FF0DC0FE01EA0DF11D8081803311F42B
:10081000397E09C032FF06C0B394B39404C0832F5D
:10082000867809F0B39433FD13C030FF06C05A2C0C
:10083000B31418F4530C5B18B32CB31468F4B70159
:1008400080E290E03C870E948D04B3943C85F5CF14
:10085000B31410F43B1801C0312C34FF12C0B7019F
:1008600080E390E03C870E948D043C8532FF17C0F6
:1008700031FD03C088E790E002C088E590E0B70151
:100880000CC0832F867859F031FF02C08BE201C083
:1008900080E237FD8DE2B70190E00E948D04A5143F
:1008A00038F4B70180E390E00E948D045A94F7CFAA
:1008B000AA94F401EA0DF11D8081B70190E00E9435
:1008C0008D04A110F5CF332009F451CEB70180E299
:1008D00090E00E948D043A94F6CFF70186819781CB
:1008E00002C08FEF9FEF2C96E2E10C943F05FC01D4
:1008F0000590615070400110D8F7809590958E0F4B
:100900009F1F0895FC016150704001900110D8F7BD
:10091000809590958E0F9F1F08950F931F93CF93EF
:10092000DF93FB01238121FD03C08FEF9FEF28C0E0
:1009300022FF16C046815781248135814217530713
:1009400044F4A081B1819D012F5F3F4F318320830B
:100950008C93268137812F5F3F4F3783268310C0CA
:10096000EB01092F182F0084F185E02D0995892BC3
:10097000E1F68E819F8101969F838E83812F902F38
:10098000DF91CF911F910F910895FA01AA27283086
:1009900051F1203181F1E8946F936E7F6E5F7F4F4C
:1009A0008F4F9F4FAF4FB1E03ED0B4E03CD0670FC8
:1009B000781F891F9A1FA11D680F791F8A1F911D1B
:1009C000A11D6A0F711D811D911DA11D20D009F46B
:1009D00068943F912AE0269F11243019305D3193AD
:1009E000DEF6CF010895462F4770405D4193B3E096
:1009F0000FD0C9F7F6CF462F4F70405D4A3318F03D
:100A0000495D31FD4052419302D0A9F7EACFB4E0ED
:100A1000A6959795879577956795BA95C9F70097A5
:100A20006105710508959B01AC010A2E0694579546
:100A3000479537952795BA95C9F7620F731F841F9D
:100A4000951FA01D08952F923F924F925F926F9233
:100A50007F928F929F92AF92BF92CF92DF92EF924E
:100A6000FF920F931F93CF93DF93CDB7DEB7CA1BCF
:100A7000DB0B0FB6F894DEBF0FBECDBF09942A88FA
:100A8000398848885F846E847D848C849B84AA84A2
:100A9000B984C884DF80EE80FD800C811B81AA812F
:100AA000B981CE0FD11D0FB6F894DEBF0FBECDBFFA
:080AB000ED010895F894FFCF59
:100AB8002B002B002B0025002040800125642020DE
:060AC8002020256400005F
:00000001FF
