:100000000C9434000C9451000C9451000C94510049
:100010000C9451000C9451000C9451000C9451001C
:100020000C9451000C9451000C9451000C9451000C
:100030000C9451000C9451000C9451000C945100FC
:100040000C9451000C9451000C9451000C945100EC
:100050000C9451000C9453000C9451000C945100DA
:100060000C9451000C94510011241FBECFEFD8E026
:10007000DEBFCDBF11E0A0E0B1E0E4E5FAE002C0F0
:1000800005900D92A632B107D9F711E0A6E2B1E0D2
:1000900001C01D92A733B107E1F70E94CB010C9478
:1000A00028050C9400001F920F920FB60F92112496
:1000B0008F93EF93FF9381E080932601EAE7F0E0CE
:1000C000808180648083FF91EF918F910F900FBEAC
:1000D0000F901F901895299887EC90E00197F1F701
:1000E00000C00000299A87EC90E00197F1F700C06A
:1000F0000000299887EC90E00197F1F700C000001C
:100100000895FC018081442311F0682B02C06095A2
:100110006823608308956F927F928F929F92BF921F
:10012000CF92DF92EF92FF920F931F93CF93DF93C3
:10013000982F9F70B92E82958F7098E0C92E91E00C
:10014000D92E20E0E22E21E0F22E4701360100E018
:1001500010E0C82FD0E0F30161913F01AE01002E05
:1001600002C0559547950A94E2F74170F4018191D8
:1001700091914F010E9481000F5F1F4F04301105C4
:1001800051F70E946B00C0E0D0E00B2D10E0F601AB
:1001900061916F01A8010C2E02C0559547950A94F4
:1001A000E2F74170F701819191917F010E948100F6
:1001B0002196C430D10559F7DF91CF911F910F914E
:1001C000FF90EF90DF90CF90BF909F908F907F90A7
:1001D0006F900C946B00CF92DF92EF92FF920F938F
:1001E0001F93CF93DF9382958F7098E0C92E91E093
:1001F000D92E20E0E22E21E0F22EC0E0D0E0082F40
:1002000010E0F60161916F01A8010C2E02C0559516
:1002100047950A94E2F74170F701819191917F012E
:100220000E9481002196C430D10559F7DF91CF910A
:100230001F910F91FF90EF90DF90CF900C946B0087
:10024000CF92DF92EF92FF920F931F93CF93DF93A2
:100250008C01FC0101900020E9F73197EF01C81BE8
:10026000D90B7E012A986130710511F480E801C034
:1002700080EC0E948B002A9A6801C601801B910BBA
:100280008C179D0734F4F60181916F010E948B0059
:10029000F4CF80E1E816F1043CF480E20E948B0088
:1002A000FFEFEF1AFF0AF5CF2A98DF91CF911F9148
:1002B0000F91FF90EF90DF90CF9008952A988A30A9
:1002C00081F480912A01813029F480EC0E948B0016
:1002D00082E004C080E80E948B0081E080932A01C4
:1002E00008952A9A0E948B002A980895209A579A76
:1002F000569A559A219A229A29982A9828985F986E
:100300005E985D982FEF80E792E02150804090400A
:10031000E1F700C0000080E30E94EB0087E293E277
:100320000197F1F700C0000080E30E94EB0087E234
:1003300093E20197F1F700C0000080E30E94EB0018
:100340008BE291E00197F1F700C0000080E20E948B
:10035000EB008BE291E00197F1F700C0000088E22A
:100360000E948B0090EA9A95F1F78CE00E948B0036
:1003700081E00E948B0086E00E948B0082E00E9458
:100380008B008FE99FE00197F1F700C0000081E04A
:1003900080932A010895CF93DF93CDB7DEB72E97D0
:1003A0000FB6F894DEBF0FBECDBF259A0E9476012E
:1003B000FE0131968EE0DF011D928A95E9F782E019
:1003C0008C838EE591E09A878987F0933401E093DE
:1003D000330180917A00866080937A0080917C005E
:1003E0008F7380937C0080917C008F7D80937C0054
:1003F00080917C00807F80937C0080917C00856F61
:1004000080937C0080EF80937B0080917A008068ED
:1004100080937A0080917A00806280937A00809144
:100420007A00886080937A00789480917A00806462
:1004300080937A0000E010E08CE0882E81E0982E16
:100440009BE1E92E91E0F92E809126018130E1F7C0
:10045000A0902801B090290180912B0190912C014E
:10046000C0902D01D0902E0120912F0130913001AC
:100470001F930F933F932F939F938F939F928F92EE
:100480000E945D02BF92AF92DF92CF92FF92EF92F5
:100490000E945D02109226010F5F1F4FBFEF29E6F9
:1004A00088E1B15020408040E1F700C000000FB665
:1004B000F894DEBF0FBECDBFC7CFA0E0B0E0E3E64B
:1004C000F2E00C940105AE014B5F5F4FFA016191C0
:1004D0007191AF0180913301909134010E947302B8
:1004E000E2E00C941D05ACE0B0E0E9E7F2E00C942A
:1004F000F1047C016B018A01FC0117821682838161
:1005000081FFBDC1CE0101964C01F7019381F60137
:1005100093FD859193FF81916F01882309F4ABC10D
:10052000853239F493FD859193FF81916F01853276
:1005300029F4B70190E00E945B04E7CF512C312CE5
:1005400020E02032A0F48B3269F030F4803259F090
:10055000833269F420612CC08D3239F0803339F454
:10056000216026C02260246023C0286021C027FDAE
:1005700027C030ED380F3A3078F426FF06C0FAE095
:100580005F9E300D1124532E13C08AE0389E300D2B
:100590001124332E20620CC08E3221F426FD6BC153
:1005A000206406C08C3611F4206802C0883641F4FD
:1005B000F60193FD859193FF81916F018111C1CF68
:1005C000982F9F7D9554933028F40C5F1F4FFFE3C5
:1005D000F9830DC0833631F0833771F0833509F02C
:1005E0005BC022C0F801808189830E5F1F4F4424C5
:1005F0004394512C540115C03801F2E06F0E711C68
:10060000F801A080B18026FF03C0652D70E002C014
:100610006FEF7FEFC5012C870E9450042C018301EE
:100620002C852F77222E17C03801F2E06F0E711C37
:10063000F801A080B18026FF03C0652D70E002C0E4
:100640006FEF7FEFC5012C870E9445042C012C859C
:100650002068222E830123FC1BC0832D90E04816C6
:100660005906B0F4B70180E290E00E945B043A942E
:10067000F4CFF50127FC859127FE81915F01B70139
:1006800090E00E945B0431103A94F1E04F1A510857
:100690004114510471F7E5C0843611F0893639F5FB
:1006A000F80127FF07C060817181828193810C5F0F
:1006B0001F4F08C060817181882777FD8095982F32
:1006C0000E5F1F4F2F76722E97FF09C09095809571
:1006D000709561957F4F8F4F9F4F2068722E2AE053
:1006E00030E0A4010E949304A82EA81844C08537C6
:1006F00029F42F7EB22E2AE030E025C0F22FF97FB8
:10070000BF2E8F36C1F018F4883579F0B4C0803729
:1007100019F0883721F0AFC02F2F2061B22EB4FE20
:100720000DC08B2D8460B82E09C024FF0AC09F2FF6
:100730009660B92E06C028E030E005C020E130E028
:1007400002C020E132E0F801B7FE07C0608171818C
:10075000828193810C5F1F4F06C06081718180E0B0
:1007600090E00E5F1F4FA4010E949304A82EA818CA
:10077000FB2DFF777F2E76FE0BC0372D3E7FA51415
:1007800050F474FE0AC072FC08C0372D3E7E05C0CE
:10079000BA2C372D03C0BA2C01C0B52C34FF0DC0C4
:1007A000FE01EA0DF11D8081803311F4397E09C00C
:1007B00032FF06C0B394B39404C0832F867809F047
:1007C000B39433FD13C030FF06C05A2CB31418F491
:1007D000530C5B18B32CB31468F4B70180E290E0BB
:1007E0003C870E945B04B3943C85F5CFB31410F4AE
:1007F0003B1801C0312C34FF12C0B70180E390E0F8
:100800003C870E945B043C8532FF17C031FD03C06A
:1008100088E790E002C088E590E0B7010CC0832F24
:10082000867859F031FF02C08BE201C080E237FDCB
:100830008DE2B70190E00E945B04A51438F4B70183
:1008400080E390E00E945B045A94F7CFAA94F401ED
:10085000EA0DF11D8081B70190E00E945B04A110B8
:10086000F5CF332009F451CEB70180E290E00E9429
:100870005B043A94F6CFF7018681978102C08FEF2F
:100880009FEF2C96E2E10C940D05FC010590615060
:1008900070400110D8F7809590958E0F9F1F089596
:1008A000FC016150704001900110D8F7809590953F
:1008B0008E0F9F1F08950F931F93CF93DF93FB011C
:1008C000238121FD03C08FEF9FEF28C022FF16C0B8
:1008D00046815781248135814217530744F4A08112
:1008E000B1819D012F5F3F4F318320838C932681FF
:1008F00037812F5F3F4F3783268310C0EB01092FCD
:10090000182F0084F185E02D0995892BE1F68E8161
:100910009F8101969F838E83812F902FDF91CF91AE
:100920001F910F910895FA01AA27283051F1203123
:1009300081F1E8946F936E7F6E5F7F4F8F4F9F4F73
:10094000AF4FB1E03ED0B4E03CD0670F781F891FB5
:100950009A1FA11D680F791F8A1F911DA11D6A0F83
:10096000711D811D911DA11D20D009F468943F9136
:100970002AE0269F11243019305D3193DEF6CF0135
:100980000895462F4770405D4193B3E00FD0C9F7FB
:10099000F6CF462F4F70405D4A3318F0495D31FD68
:1009A0004052419302D0A9F7EACFB4E0A6959795BB
:1009B000879577956795BA95C9F700976105710591
:1009C00008959B01AC010A2E0694579547953795DB
:1009D0002795BA95C9F7620F731F841F951FA01D35
:1009E00008952F923F924F925F926F927F928F92D3
:1009F0009F92AF92BF92CF92DF92EF92FF920F93AE
:100A00001F93CF93DF93CDB7DEB7CA1BDB0B0FB6B7
:100A1000F894DEBF0FBECDBF09942A883988488874
:100A20005F846E847D848C849B84AA84B984C8840A
:100A3000DF80EE80FD800C811B81AA81B981CE0F01
:100A4000D11D0FB6F894DEBF0FBECDBFED010895E6
:040A5000F894FFCF48
:100A54002B002B002B002500204080012575202031
:100A64002020257520202025750A002575202020AA
:060A74002025750A0000B8
:00000001FF
